:100000000C942A000C9447000C9447000C94470071
:100010000C9447000C9447000C9447000C94470044
:100020000C9447000C9447000C9447000C94470034
:100030000C9447000C9447000C9447000C94470024
:100040000C9447000C9447000C9447000C94470014
:100050000C94470011241FBECFE5D8E0DEBFCDBF12
:1000600010E0A8E6B0E001C01D92A837B107E1F7A3
:1000700010E0A0E6B0E0ECE4F3E302C005900D92DE
:10008000A836B107D9F70E9412140C94A4190C9445
:100090000000EF92FF920F931F937B018C0120E0F1
:1000A00030E040E05FE40E94490388238CF0C801FF
:1000B000B70120E030E040E05FE40E94C1010E940F
:1000C000A9039B01AC01205030404040504806C07D
:1000D000C801B7010E94A9039B01AC01B901CA0183
:1000E0001F910F91FF90EF900895A0E0B0E0EBE733
:1000F000F0E00C942819DC012B01FA019C9192305C
:1001000008F439C1EB018881823008F433C194309E
:1001100069F4843009F02FC111969C91119789815F
:10012000981709F428C1A0E6B0E025C1843009F48D
:1001300021C18230A9F4923009F01DC19A01AD01AC
:1001400088E0EA010990AE01E90109929E0181501F
:10015000C1F7E201898111969C918923818308C1AD
:10016000923009F407C112962D903C901397EB0141
:100170008A819B811496AD90BD90CD90DC901797AD
:10018000EC80FD800E811F819101281B390BB90184
:1001900037FF04C066277727621B730B6032710537
:1001A0000CF061C0121613066CF537014801062EDB
:1001B00004C096948794779467940A94D2F721E0C8
:1001C00030E040E050E004C0220F331F441F551FB1
:1001D0006A95D2F721503040404050402E213F21B7
:1001E00040235123211531054105510521F021E01E
:1001F00030E040E050E079018A01E628F72808293C
:1002000019293CC0232BD1F1260E371E350146019A
:10021000062E04C096948794779467940A94D2F734
:1002200021E030E040E050E004C0220F331F441FC3
:10023000551F6A95D2F721503040404050402A2146
:100240003B214C215D21211531054105510521F04E
:1002500021E030E040E050E059016A01A628B728CB
:10026000C828D9280BC0821593052CF01C01AA249C
:10027000BB24650103C0EE24FF24870111969C91E5
:10028000D20111968C91981709F445C0992339F041
:10029000A80197012A193B094C095D0906C0A6016E
:1002A00095012E193F09400B510B57FD08C01182D3
:1002B0003382228224833583468357831DC081E0A5
:1002C00081833382228288279927DC01821B930B4A
:1002D000A40BB50B84839583A683B7830DC0220F2F
:1002E000331F441F551F24833583468357838281E0
:1002F000938101979383828324813581468157813D
:10030000DA01C9010197A109B1098F5F9F4FAF4F72
:10031000BF4328F30BC0918333822282EA0CFB1C7B
:100320000C1D1D1DE482F5820683178383E0808304
:10033000248135814681578157FF1AC0C901AA27F8
:1003400097FDA095BA2F81709070A070B0705695EF
:10035000479537952795822B932BA42BB52B848318
:100360009583A683B7838281938101969383828349
:10037000DF0101C0D201CD01CDB7DEB7E2E10C94BF
:100380004419A0E2B0E0E7ECF1E00C943419698381
:100390007A838B839C832D833E834F835887E9E048
:1003A000EE2EF12CEC0EFD1ECE010196B7010E943F
:1003B000D2048E010F5E1F4FCE010596B8010E9438
:1003C000D2048A8991E089278A8BC701B801AE01DE
:1003D000475E5F4F0E9475000E94FD03A096E6E015
:1003E0000C945019A0E2B0E0E8EFF1E00C9434195D
:1003F00069837A838B839C832D833E834F835887C5
:10040000F9E0EF2EF12CEC0EFD1ECE010196B701A6
:100410000E94D2048E010F5E1F4FCE010596B801D7
:100420000E94D204C701B801AE01475E5F4F0E942F
:1004300075000E94FD03A096E6E00C945019A0E21E
:10044000B0E0E5E2F2E00C94281969837A838B83AB
:100450009C832D833E834F835887CE010196BE0136
:10046000675F7F4F0E94D204CE010596BE016F5E8A
:100470007F4F0E94D2049985923088F0898982301A
:10048000C8F0943019F4823051F404C0843029F457
:10049000923081F480E690E0C6C0923049F420E0CA
:1004A0009A858A89981321E02A87CE010996BBC0D4
:1004B000823049F420E09A858A89981321E02A8BBA
:1004C000CE014196B0C02D843E844F8458886D88FB
:1004D0007E888F88988CEE24FF248701AA24BB2471
:1004E000650140E050E060E070E0E0E0F0E0C10174
:1004F00081709070892BE9F0E60CF71C081D191D1E
:100500009A01AB012A0D3B1D4C1D5D1D80E090E062
:10051000A0E0B0E0E614F7040805190520F481E036
:1005200090E0A0E0B0E0BA01A901480F591F6A1F8E
:100530007B1FAA0CBB1CCC1CDD1C97FE08C081E0F5
:1005400090E0A0E0B0E0A82AB92ACA2ADB2A3196B6
:10055000E032F10549F0660C771C881C991C569412
:10056000479437942794C3CFFA85EA892B893C892D
:100570008B859C85280F391F2E5F3F4F17C0CA01FE
:1005800081709070892B61F016950795F794E79428
:1005900080E090E0A0E0B0E8E82AF92A0A2B1B2BC3
:1005A00076956795579547952F5F3F4F77FDE7CF36
:1005B0000CC0440F551F661F771F17FD4160EE0CDE
:1005C000FF1C001F111F21503040403090E05907A0
:1005D00090E0690790E4790760F32B8F3C8FDB0193
:1005E000CA018F779070A070B07080349105A1051A
:1005F000B10561F447FD0AC0E114F10401051105DC
:1006000029F0405C5F4F6F4F7F4F40781A8EFE1786
:1006100011F081E08A8F4D8F5E8F6F8F78A383E01A
:10062000898FCE0149960E94FD03A096E2E10C94C9
:100630004419A8E1B0E0EFE1F3E00C9434196983C8
:100640007A838B839C832D833E834F83588789E0F5
:10065000E82EF12CEC0EFD1ECE010196B7010E9492
:10066000D2048E010F5E1F4FCE010596B8010E9485
:10067000D2048985823040F08989823028F0C70110
:10068000B8010E944A0501C08FEF6896E6E00C941D
:100690005019A8E1B0E0EFE4F3E00C943419698359
:1006A0007A838B839C832D833E834F83588789E095
:1006B000E82EF12CEC0EFD1ECE010196B7010E9432
:1006C000D2048E010F5E1F4FCE010596B8010E9425
:1006D000D2048985823040F08989823028F0C701B0
:1006E000B8010E944A0501C08FEF6896E6E00C94BD
:1006F0005019A8E1B0E0EFE7F3E00C9434196983F6
:100700007A838B839C832D833E834F83588789E034
:10071000E82EF12CEC0EFD1ECE010196B7010E94D1
:10072000D2048E010F5E1F4FCE010596B8010E94C4
:10073000D2048985823040F08989823028F0C7014F
:10074000B8010E944A0501C081E06896E6E00C9479
:100750005019ACE0B0E0EFEAF3E00C94381969838B
:100760007A838B839C83CE010196BE016B5F7F4FA2
:100770000E94D2048D81823061F1823050F1843048
:1007800021F48E81882351F12EC02F81388537FDC9
:1007900020C06E812F3131051CF06623F9F023C093
:1007A0008EE190E0821B930B29853A854B855C8511
:1007B00004C056954795379527958A95D2F76623B5
:1007C000B1F050954095309521953F4F4F4F5F4F79
:1007D0000EC020E030E040E050E009C02FEF3FEFD6
:1007E0004FEF5FE704C020E030E040E050E8B9019F
:1007F000CA012C96E2E00C945419DF92EF92FF921A
:100800000F931F93FC01E480F58006811781D1804E
:100810008081823048F480E090E0A0E1B0E0E82AF6
:10082000F92A0A2B1B2BA5C0843009F49FC0823003
:1008300021F4EE24FF24870105C0E114F104010531
:10084000110519F4E0E0F0E096C0628173819FEF3A
:10085000623879070CF05BC022E83FEF261B370BAC
:100860002A3131052CF020E030E040E050E02AC091
:10087000B801A701022E04C0769567955795479554
:100880000A94D2F781E090E0A0E0B0E004C0880FC5
:10089000991FAA1FBB1F2A95D2F70197A109B10979
:1008A0008E219F21A023B1230097A105B10521F03E
:1008B00081E090E0A0E0B0E09A01AB01282B392B59
:1008C0004A2B5B2BDA01C9018F779070A070B07052
:1008D00080349105A105B10539F427FF09C0205CDA
:1008E0003F4F4F4F5F4F04C0215C3F4F4F4F5F4F13
:1008F000E0E0F0E02030A0E03A07A0E04A07A0E402
:100900005A0710F0E1E0F0E079018A0127C0603871
:10091000710564F5FB01E158FF4FD801C7018F77DE
:100920009070A070B07080349105A105B10539F4C4
:10093000E7FE0DC080E490E0A0E0B0E004C08FE3EB
:1009400090E0A0E0B0E0E80EF91E0A1F1B1F17FFA1
:1009500005C016950795F794E794319687E01695AC
:100960000795F794E7948A95D1F705C0EE24FF2404
:100970008701EFEFF0E06E2F679566276795902F60
:100980009F77D794DD24D7948E2F8695492F462BB9
:10099000582F5D29B701CA011F910F91FF90EF9069
:1009A000DF900895FC01DB01408151812281622F9B
:1009B0006F7770E0221F2227221F9381892F880FD3
:1009C000822B282F30E0991F9927991F11969C930D
:1009D000119721153105A9F54115510561057105DD
:1009E00011F482E037C082E89FEF13969C938E93B8
:1009F00012979A01AB0167E0220F331F441F551F66
:100A00006A95D1F783E08C930DC0220F331F441FEA
:100A1000551F12968D919C911397019713969C9355
:100A20008E931297203080E0380780E0480780E4FA
:100A3000580758F314962D933D934D935C93179755
:100A400008952F3F310579F4411551056105710570
:100A500019F484E08C93089564FF03C081E08C93C3
:100A600012C01C9210C02F57304013963C932E9307
:100A7000129783E08C9387E0440F551F661F771F02
:100A80008A95D1F7706414964D935D936D937C9322
:100A9000179708951F93DC01FB019C91923008F495
:100AA00047C08081823008F443C0943051F41196DD
:100AB0001C91843099F58181682F70E0611B710968
:100AC0003FC0843021F0923031F48230B9F181811D
:100AD000882389F12DC011961C9111978230F1F075
:100AE00081811817D9F412962D913C911397828128
:100AF00093818217930794F028173907BCF0149656
:100B00008D919D910D90BC91A02D248135814681C0
:100B10005781281739074A075B0718F4112341F05A
:100B20000AC082179307A407B50740F4112319F0F0
:100B300061E070E005C06FEF7FEF02C060E070E041
:100B4000CB011F910895DF93CF93CDB7DEB72797E1
:100B50000FB6F894DEBF0FBECDBF89836A834B8387
:100B60008981843008F0EDC08A81883008F0E9C0BE
:100B70008B81882309F073C08981282F30E03F835F
:100B80002E838E819F818130910559F12E813F8185
:100B9000223031052CF48E819F81009769F05FC06F
:100BA0002E813F812230310589F18E819F818330F2
:100BB000910509F440C053C0AAE3B0E0EAE3F0E0D5
:100BC0008081482F8A81282F30E081E090E0022E3A
:100BD00002C0880F991F0A94E2F7809584238C93B2
:100BE0003EC0A7E3B0E0E7E3F0E08081482F8A81D0
:100BF000282F30E081E090E0022E02C0880F991F7C
:100C00000A94E2F7809584238C9329C0A4E3B0E092
:100C1000E4E3F0E08081482F8A81282F30E081E0F2
:100C200090E0022E02C0880F991F0A94E2F7809587
:100C300084238C9314C0A1E3B0E0E1E3F0E0808171
:100C4000482F8A81282F30E081E090E0022E02C0F8
:100C5000880F991F0A94E2F7809584238C938B81E7
:100C6000813009F06EC08981282F30E03D832C83CC
:100C70008C819D818130910549F12C813D8122300B
:100C800031052CF48C819D81009761F05AC02C8134
:100C90003D812230310571F18C819D818330910538
:100CA000E9F14FC0AAE3B0E0EAE3F0E08081482F29
:100CB0008A81282F30E081E090E0022E02C0880F68
:100CC000991F0A94E2F7842B8C933BC0A7E3B0E012
:100CD000E7E3F0E08081482F8A81282F30E081E02F
:100CE00090E0022E02C0880F991F0A94E2F7842B2D
:100CF0008C9327C0A4E3B0E0E4E3F0E08081482FC8
:100D00008A81282F30E081E090E0022E02C0880F17
:100D1000991F0A94E2F7842B8C9313C0A1E3B0E0EF
:100D2000E1E3F0E08081482F8A81282F30E081E0E4
:100D300090E0022E02C0880F991F0A94E2F7842BDC
:100D40008C9327960FB6F894DEBF0FBECDBFCF9120
:100D5000DF910895DF93CF93CDB7DEB729970FB614
:100D6000F894DEBF0FBECDBF89836A834B838B812E
:100D7000882309F073C08981282F30E039872887BC
:100D8000888599858130910559F1288539852230EA
:100D900031052CF488859985009769F05FC0288516
:100DA00039852230310589F188859985833091050F
:100DB00009F440C053C0ABE3B0E0EBE3F0E0808166
:100DC000482F8A81282F30E081E090E0022E02C077
:100DD000880F991F0A94E2F7809584238C933EC074
:100DE000A8E3B0E0E8E3F0E08081482F8A81282F73
:100DF00030E081E090E0022E02C0880F991F0A9433
:100E0000E2F7809584238C9329C0A5E3B0E0E5E365
:100E1000F0E08081482F8A81282F30E081E090E047
:100E2000022E02C0880F991F0A94E2F7809584234E
:100E30008C9314C0A2E3B0E0E2E3F0E08081482F9D
:100E40008A81282F30E081E090E0022E02C0880FD6
:100E5000991F0A94E2F7809584238C938B818130CB
:100E600009F06EC08981282F30E03F832E838E8168
:100E70009F818130910549F12E813F8122303105DA
:100E80002CF48E819F81009761F05AC02E813F81A2
:100E90002230310571F18E819F8183309105E9F116
:100EA0004FC0ABE3B0E0EBE3F0E08081482F8A81F4
:100EB000282F30E081E090E0022E02C0880F991FB9
:100EC0000A94E2F7842B8C933BC0A8E3B0E0E8E3FC
:100ED000F0E08081482F8A81282F30E081E090E087
:100EE000022E02C0880F991F0A94E2F7842B8C937C
:100EF00027C0A5E3B0E0E5E3F0E08081482F8A81D8
:100F0000282F30E081E090E0022E02C0880F991F68
:100F10000A94E2F7842B8C9313C0A2E3B0E0E2E3DF
:100F2000F0E08081482F8A81282F30E081E090E036
:100F3000022E02C0880F991F0A94E2F7842B8C932B
:100F40008B81823009F06EC08981282F30E03D838B
:100F50002C838C819D818130910549F12C813D81CB
:100F6000223031052CF48C819D81009761F05AC0AC
:100F70002C813D812230310571F18C819D8183303E
:100F80009105E9F14FC0ABE3B0E0EBE3F0E0808125
:100F9000482F8A81282F30E081E090E0022E02C0A5
:100FA000880F991F0A94E2F784278C933BC0A8E32B
:100FB000B0E0E8E3F0E08081482F8A81282F30E01C
:100FC00081E090E0022E02C0880F991F0A94E2F798
:100FD00084278C9327C0A5E3B0E0E5E3F0E08081AF
:100FE000482F8A81282F30E081E090E0022E02C055
:100FF000880F991F0A94E2F784278C9313C0A2E309
:10100000B0E0E2E3F0E08081482F8A81282F30E0D1
:1010100081E090E0022E02C0880F991F0A94E2F747
:1010200084278C9329960FB6F894DEBF0FBECDBFF0
:10103000CF91DF910895DF93CF9300D000D00F922E
:10104000CDB7DEB78A836B838A81282F30E03D835A
:101050002C834C815D814130510541F18C819D8112
:101060008230910534F42C813D812115310561F0E8
:1010700052C04C815D814230510551F18C819D817E
:1010800083309105B9F147C0E9E3F0E08081282F72
:1010900030E08B81882F90E0A90102C055954795DB
:1010A0008A95E2F7CA018170898335C0E6E3F0E0F2
:1010B0008081282F30E08B81882F90E0A90102C029
:1010C000559547958A95E2F7CA018170898323C0B7
:1010D000E3E3F0E08081282F30E08B81882F90E0DF
:1010E000A90102C0559547958A95E2F7CA0181701A
:1010F000898311C0E0E3F0E08081282F30E08B810C
:10110000882F90E0A90102C0559547958A95E2F78E
:10111000CA018170898389810F900F900F900F9081
:101120000F90CF91DF910895DF93CF9300D000D03F
:1011300000D0CDB7DEB789836A838981843008F017
:1011400066C08A81882371F58981282F30E03E832B
:101150002D838D819E8181309105C9F02D813E8145
:10116000223031052CF48D819E81009761F01AC0E8
:101170002D813E812230310571F08D819E81833039
:10118000910569F00FC0EAE3F0E010820BC0E7E3DD
:10119000F0E0108207C0E4E3F0E0108203C0E1E376
:1011A000F0E010828A81813091F58981282F30E02A
:1011B0003C832B838B819C8181309105D1F02B81E5
:1011C0003C81223031052CF48B819C81009761F0A9
:1011D0001EC02B813C812230310581F08B819C81A6
:1011E0008330910581F013C0EAE3F0E08FEF808354
:1011F0000EC0E7E3F0E08FEF808309C0E4E3F0E0A6
:101200008FEF808304C0E1E3F0E08FEF80832696C8
:101210000FB6F894DEBF0FBECDBFCF91DF9108951A
:10122000DF93CF9300D000D000D0CDB7DEB7898355
:101230006A838A81882379F58981282F30E03E836B
:101240002D838D819E8181309105C9F02D813E8154
:10125000223031052CF48D819E81009761F04DC0C4
:101260002D813E812230310571F08D819E81833048
:10127000910569F042C0EBE3F0E010823EC0E8E384
:10128000F0E010823AC0E5E3F0E0108236C0E2E31D
:10129000F0E0108232C08981282F30E03C832B831C
:1012A0008B819C8181309105D1F02B813C81223052
:1012B00031052CF48B819C81009761F01EC02B813D
:1012C0003C812230310581F08B819C8183309105F6
:1012D00081F013C0EBE3F0E08A8180830EC0E8E385
:1012E000F0E08A81808309C0E5E3F0E08A818083B1
:1012F00004C0E2E3F0E08A81808326960FB6F8947A
:10130000DEBF0FBECDBFCF91DF910895DF93CF93A6
:10131000CDB7DEB72E970FB6F894DEBF0FBECDBFA8
:101320000E94240D80E090E0A8ECB2E48B879C87BB
:10133000AD87BE876B857C858D859E8520E030E0FE
:101340004AE755E40E941F02DC01CB018F83988796
:10135000A987BA876F81788589859A8520E030E0F2
:1013600040E85FE30E94790388232CF481E090E059
:101370009E838D833FC06F81788589859A8520E023
:101380003FEF4FE757E40E94190318164CF56B85A1
:101390007C858D859E8520E030E040E251E40E940E
:1013A0001F02DC01CB01BC01CD010E944900DC0120
:1013B000CB019E838D830FC080E991E09C838B835A
:1013C0008B819C810197F1F79C838B838D819E811A
:1013D00001979E838D838D819E81009769F714C04C
:1013E0006F81788589859A850E944900DC01CB014F
:1013F0009E838D838D819E819A83898389819A8141
:101400000197F1F79A8389832E960FB6F894DEBF81
:101410000FBECDBFCF91DF910895DF93CF9300D062
:10142000CDB7DEB789836A830E94560D80EA0E9499
:101430009B0D89810E94E30D8A810E94E30D0E9429
:10144000900D0F900F90CF91DF910895DF93CF9380
:1014500000D0CDB7DEB78A8319820E94560D80EA8C
:101460000E949B0D8A810E94E30D0E94900D0E94B4
:10147000560D81EA0E94BF0D0E94070E89830E94CB
:10148000900D89810F900F90CF91DF910895DF9398
:10149000CF93CDB7DEB7AE970FB6F894DEBF0FBED1
:1014A000CDBF8CA77EA76DA71BA60E94560D80EA14
:1014B0000E949B0D8CA50E94E30D80C08BA5282F58
:1014C00030E08DA59EA5FC01E20FF31F80810E94F4
:1014D000E30D80E090E0A8ECB2E48FA398A7A9A761
:1014E000BAA76FA178A589A59AA520E030E04AE7C0
:1014F00055E40E941F02DC01CB018BA39CA3ADA38A
:10150000BEA36BA17CA18DA19EA120E030E040E8AC
:101510005FE30E94790388232CF481E090E09AA392
:1015200089A33FC06BA17CA18DA19EA120E03FEFCC
:101530004FE757E40E94190318164CF56FA178A5E0
:1015400089A59AA520E030E040E251E40E941F0204
:10155000DC01CB01BC01CD010E944900DC01CB01C3
:101560009AA389A30FC080E991E098A38F8F8F8DF4
:1015700098A10197F1F798A38F8F89A19AA101975C
:101580009AA389A389A19AA1009769F714C06BA1B6
:101590007CA18DA19EA10E944900DC01CB019AA3F0
:1015A00089A389A19AA19E8F8D8F8D8D9E8D019784
:1015B000F1F79E8F8D8F8BA58F5F8BA78BA5282F23
:1015C00030E08DA59EA5FC01E20FF31F80818823EA
:1015D00009F074CF80E00E94E30D80E090E0A8EC79
:1015E000B2E4898F9A8FAB8FBC8F698D7A8D8B8D8A
:1015F0009C8D20E030E04AE755E40E941F02DC01A8
:10160000CB018D8B9E8BAF8BB88F6D897E898F8937
:10161000988D20E030E040E85FE30E947903882362
:101620002CF481E090E09C8B8B8B3FC06D897E8990
:101630008F89988D20E03FEF4FE757E40E94190310
:1016400018164CF5698D7A8D8B8D9C8D20E030E0DD
:1016500040E251E40E941F02DC01CB01BC01CD013C
:101660000E944900DC01CB019C8B8B8B0FC080E971
:1016700091E09A8B898B89899A890197F1F79A8BE6
:10168000898B8B899C8901979C8B8B8B8B899C89FF
:10169000009769F714C06D897E898F89988D0E94A3
:1016A0004900DC01CB019C8B8B8B8B899C89988BAF
:1016B0008F878F8598890197F1F7988B8F870E9484
:1016C000900D80E090E0A8ECB2E48B879C87AD871A
:1016D000BE876B857C858D859E8520E030E04AE75E
:1016E00055E40E941F02DC01CB018F839887A987F4
:1016F000BA876F81788589859A8520E030E040E857
:101700005FE30E94790388232CF481E090E09E83BC
:101710008D833FC06F81788589859A8520E03FEF72
:101720004FE757E40E94190318164CF56B857C852A
:101730008D859E8520E030E040E251E40E941F024A
:10174000DC01CB01BC01CD010E944900DC01CB01D1
:101750009E838D830FC080E991E09C838B838B8176
:101760009C810197F1F79C838B838D819E810197EA
:101770009E838D838D819E81009769F714C06F8150
:10178000788589859A850E944900DC01CB019E837A
:101790008D838D819E819A83898389819A81019726
:1017A000F1F79A838983AE960FB6F894DEBF0FBE29
:1017B000CDBFCF91DF9108950F931F93DF93CF9308
:1017C000CDB7DEB7A0970FB6F894DEBF0FBECDBF82
:1017D0008E8F78A36F8F1D8E8D8D282F30E08F8D8B
:1017E00098A18C01020F131F9E8D8D8D890F0E9471
:1017F000260AF801808380E090E0A8E4B2E4898FB3
:101800009A8FAB8FBC8F698D7A8D8B8D9C8D20E0EC
:1018100030E04AE755E40E941F02DC01CB018D8BCA
:101820009E8BAF8BB88F6D897E898F89988D20E0D4
:1018300030E040E85FE30E94790388232CF481E0E4
:1018400090E09C8B8B8B3FC06D897E898F89988DB2
:1018500020E03FEF4FE757E40E94190318164CF5BC
:10186000698D7A8D8B8D9C8D20E030E040E251E4D3
:101870000E941F02DC01CB01BC01CD010E94490086
:10188000DC01CB019C8B8B8B0FC080E991E09A8BA4
:10189000898B89899A890197F1F79A8B898B8B8932
:1018A0009C8901979C8B8B8B8B899C89009769F70E
:1018B00014C06D897E898F89988D0E944900DC0152
:1018C000CB019C8B8B8B8B899C89988B8F878F8589
:1018D00098890197F1F7988B8F878D8D8F5F8D8F0A
:1018E0008D8D882F90E09C01215030408F8D98A1E4
:1018F000FC01E20FF31F8081882309F06DCF8D8DED
:10190000282F30E08F8D98A1FC01E20FF31F108289
:1019100080E090E0A8E4B2E48B879C87AD87BE8727
:101920006B857C858D859E8520E030E04AE755E417
:101930000E941F02DC01CB018F839887A987BA8799
:101940006F81788589859A8520E030E040E85FE303
:101950000E94790388232CF481E090E09E838D839C
:101960003FC06F81788589859A8520E03FEF4FE7FA
:1019700057E40E94190318164CF56B857C858D85FC
:101980009E8520E030E040E251E40E941F02DC012D
:10199000CB01BC01CD010E944900DC01CB019E833B
:1019A0008D830FC080E991E09C838B838B819C8128
:1019B0000197F1F79C838B838D819E8101979E8394
:1019C0008D838D819E81009769F714C06F81788522
:1019D00089859A850E944900DC01CB019E838D8315
:1019E0008D819E819A83898389819A810197F1F7FC
:1019F0009A838983A0960FB6F894DEBF0FBECDBF41
:101A0000CF91DF911F910F910895DF93CF9300D075
:101A10000F92CDB7DEB79B838A8319820CC0898170
:101A2000282F30E08A819B81FC01E20FF31F108296
:101A300089818F5F89838981803188F30F900F902E
:101A40000F90CF91DF910895DF93CF93CDB7DEB79D
:101A5000E0E2F0E08AE08083A1E2B0E0E1E2F0E0E1
:101A600080818E7F8C93A1E2B0E0E1E2F0E08081A2
:101A70008D7F8C93A6E5B0E0E6E5F0E080818064A0
:101A80008C93CF91DF910895DF93CF93CDB7DEB7DD
:101A9000E2E2F0E080E28083A6E5B0E0E6E5F0E097
:101AA000808180648C93CF91DF910895DF93CF93F1
:101AB000CDB7DEB7E6E5F0E084EA8083E6E5F0E066
:101AC0008081881F8827881F8130C1F7E1E2F0E01C
:101AD0008081882F90E0887F907088309105B1F7E1
:101AE000CF91DF910895DF93CF93CDB7DEB7E6E5D1
:101AF000F0E084EA8083E6E5F0E08081881F8827B3
:101B0000881F8130C1F7E1E2F0E08081882F90E00A
:101B1000887F907080319105B1F7CF91DF91089562
:101B2000DF93CF93CDB7DEB7E6E5F0E084E98083BD
:101B3000CF91DF910895DF93CF930F92CDB7DEB7AA
:101B40008983E3E2F0E089818083E6E5F0E084E8E0
:101B50008083E6E5F0E08081881F8827881F813038
:101B6000C1F7E1E2F0E08081882F90E0887F9070FB
:101B700088319105B1F70F90CF91DF910895DF93F0
:101B8000CF930F92CDB7DEB78983E3E2F0E089818E
:101B90008083E6E5F0E084E88083E6E5F0E080819C
:101BA000881F8827881F8130C1F7E1E2F0E080813B
:101BB000882F90E0887F907080349105B1F70F9066
:101BC000CF91DF910895DF93CF930F92CDB7DEB71A
:101BD0008983E3E2F0E089818083E6E5F0E084E850
:101BE0008083E6E5F0E08081881F8827881F8130A8
:101BF000C1F7E1E2F0E08081882F90E0887F90706B
:101C000088329105B1F70F90CF91DF910895DF935E
:101C1000CF93CDB7DEB7E6E5F0E084E88083E6E574
:101C2000F0E08081881F8827881F8130C1F7E1E2BA
:101C3000F0E08081882F90E0887F90708835910552
:101C4000B1F7E3E2F0E08081CF91DF910895DF9377
:101C5000CF93CDB7DEB7E8970FB6F894DEBF0FBECF
:101C6000CDBF81E061E041E00E94A30581E062E038
:101C700041E00E94A30581E063E041E00E94A305EA
:101C800080E064E041E00E94A30580E065E041E07F
:101C90000E94A30580E066E041E00E94A30580E089
:101CA00067E041E00E94A30580E090E0A8E4B2E490
:101CB0008DAB9EABAFABB8AF6DA97EA98FA998AD28
:101CC00020E030E04AE755E40E941F02DC01CB012E
:101CD00089AB9AABABABBCAB69A97AA98BA99CA920
:101CE00020E030E040E85FE30E94790388232CF491
:101CF00081E090E098AB8FA73FC069A97AA98BA932
:101D00009CA920E03FEF4FE757E40E941903181603
:101D10004CF56DA97EA98FA998AD20E030E040E296
:101D200051E40E941F02DC01CB01BC01CD010E94E5
:101D30004900DC01CB0198AB8FA70FC080E991E08F
:101D40009EA78DA78DA59EA50197F1F79EA78DA7AC
:101D50008FA598A9019798AB8FA78FA598A90097F1
:101D600069F714C069A97AA98BA99CA90E944900A6
:101D7000DC01CB0198AB8FA78FA598A99CA78BA757
:101D80008BA59CA50197F1F79CA78BA782E00E94E9
:101D900034108CE20E94341080E090E0A0E8BFE3B1
:101DA0008FA398A7A9A7BAA76FA178A589A59AA577
:101DB00020E030E04AE755E40E941F02DC01CB013D
:101DC0008BA39CA3ADA3BEA36BA17CA18DA19EA15F
:101DD00020E030E040E85FE30E94790388232CF4A0
:101DE00081E090E09AA389A33FC06BA17CA18DA163
:101DF0009EA120E03FEF4FE757E40E941903181619
:101E00004CF56FA178A589A59AA520E030E040E2C5
:101E100051E40E941F02DC01CB01BC01CD010E94F4
:101E20004900DC01CB019AA389A30FC080E991E0AE
:101E300098A38F8F8F8D98A10197F1F798A38F8F1B
:101E400089A19AA101979AA389A389A19AA1009730
:101E500069F714C06BA17CA18DA19EA10E944900CD
:101E6000DC01CB019AA389A389A19AA19E8F8D8FB2
:101E70008D8D9E8D0197F1F79E8F8D8F8CE00E9446
:101E8000341080E090E0A0E8BFE3898F9A8FAB8F99
:101E9000BC8F698D7A8D8B8D9C8D20E030E04AE778
:101EA00055E40E941F02DC01CB018D8B9E8BAF8B12
:101EB000B88F6D897E898F89988D20E030E040E869
:101EC0005FE30E94790388232CF481E090E09C8BEF
:101ED0008B8B3FC06D897E898F89988D20E03FEF85
:101EE0004FE757E40E94190318164CF5698D7A8D57
:101EF0008B8D9C8D20E030E040E251E40E941F0277
:101F0000DC01CB01BC01CD010E944900DC01CB0109
:101F10009C8B8B8B0FC080E991E09A8B898B898990
:101F20009A890197F1F79A8B898B8B899C89019704
:101F30009C8B8B8B8B899C89009769F714C06D896A
:101F40007E898F89988D0E944900DC01CB019C8B92
:101F50008B8B8B899C89988B8F878F85988901972C
:101F6000F1F7988B8F8781E00E94341080E090E039
:101F7000A0E0B0E48B879C87AD87BE876B857C85AE
:101F80008D859E8520E030E04AE755E40E941F02DF
:101F9000DC01CB018F839887A987BA876F81788509
:101FA00089859A8520E030E040E85FE30E9479036C
:101FB00088232CF481E090E09E838D833FC06F8165
:101FC000788589859A8520E03FEF4FE757E40E94A6
:101FD000190318164CF56B857C858D859E8520E050
:101FE00030E040E251E40E941F02DC01CB01BC0161
:101FF000CD010E944900DC01CB019E838D830FC07F
:1020000080E991E09C838B838B819C810197F1F720
:102010009C838B838D819E8101979E838D838D818F
:102020009E81009769F714C06F81788589859A85AC
:102030000E944900DC01CB019E838D838D819E81AE
:102040009A83898389819A810197F1F79A83898399
:1020500086E00E943410E8960FB6F894DEBF0FBEFB
:10206000CDBFCF91DF910895DF93CF93CDB7DEB78A
:102070006D970FB6F894DEBF0FBECDBF8D8F81E098
:1020800062E040E00E94AA0681E061E040E00E9438
:10209000AA06ABE3B0E0EBE3F0E08081982F9F70FD
:1020A0008D8D807F892B8C9381E063E041E00E94DD
:1020B000AA0680E090E0A0E0B0E4898F9A8FAB8F11
:1020C000BC8F698D7A8D8B8D9C8D20E030E04AE746
:1020D00055E40E941F02DC01CB018D8B9E8BAF8BE0
:1020E000B88F6D897E898F89988D20E030E040E837
:1020F0005FE30E94790388232CF481E090E09C8BBD
:102100008B8B3FC06D897E898F89988D20E03FEF52
:102110004FE757E40E94190318164CF5698D7A8D24
:102120008B8D9C8D20E030E040E251E40E941F0244
:10213000DC01CB01BC01CD010E944900DC01CB01D7
:102140009C8B8B8B0FC080E991E09A8B898B89895E
:102150009A890197F1F79A8B898B8B899C890197D2
:102160009C8B8B8B8B899C89009769F714C06D8938
:102170007E898F89988D0E944900DC01CB019C8B60
:102180008B8B8B899C89988B8F878F8598890197FA
:10219000F1F7988B8F8781E063E040E00E94AA0608
:1021A000ABE3B0E0EBE3F0E08081282F2F708D8D62
:1021B000882F90E082959295907F9827807F98272E
:1021C000822B8C9381E063E041E00E94AA0680E0CC
:1021D00090E0A0E0B0E48B879C87AD87BE876B85DD
:1021E0007C858D859E8520E030E04AE755E40E949D
:1021F0001F02DC01CB018F839887A987BA876F8183
:10220000788589859A8520E030E040E85FE30E9488
:10221000790388232CF481E090E09E838D833FC076
:102220006F81788589859A8520E03FEF4FE757E4F5
:102230000E94190318164CF56B857C858D859E854B
:1022400020E030E040E251E40E941F02DC01CB01BB
:10225000BC01CD010E944900DC01CB019E838D832E
:102260000FC080E991E09C838B838B819C810197D7
:10227000F1F79C838B838D819E8101979E838D8353
:102280008D819E81009769F714C06F81788589855B
:102290009A850E944900DC01CB019E838D838D814C
:1022A0009E819A83898389819A810197F1F79A8324
:1022B000898381E063E040E00E94AA066D960FB634
:1022C000F894DEBF0FBECDBFCF91DF910895DF93AD
:1022D000CF93CDB7DEB76D970FB6F894DEBF0FBEC4
:1022E000CDBF8D8F81E062E040E00E94AA0681E0D0
:1022F00061E041E00E94AA06ABE3B0E0EBE3F0E06E
:102300008081982F9F708D8D807F892B8C9381E0A9
:1023100063E041E00E94AA0680E090E0A0E0B0E423
:10232000898F9A8FAB8FBC8F698D7A8D8B8D9C8DA9
:1023300020E030E04AE755E40E941F02DC01CB01B7
:102340008D8B9E8BAF8BB88F6D897E898F89988D91
:1023500020E030E040E85FE30E94790388232CF41A
:1023600081E090E09C8B8B8B3FC06D897E898F894B
:10237000988D20E03FEF4FE757E40E9419031816AD
:102380004CF5698D7A8D8B8D9C8D20E030E040E29C
:1023900051E40E941F02DC01CB01BC01CD010E946F
:1023A0004900DC01CB019C8B8B8B0FC080E991E055
:1023B0009A8B898B89899A890197F1F79A8B898BF6
:1023C0008B899C8901979C8B8B8B8B899C8900972F
:1023D00069F714C06D897E898F89988D0E944900A4
:1023E000DC01CB019C8B8B8B8B899C89988B8F8795
:1023F0008F8598890197F1F7988B8F8781E063E04B
:1024000040E00E94AA06ABE3B0E0EBE3F0E080819D
:10241000282F2F708D8D882F90E082959295907F38
:102420009827807F9827822B8C9381E063E041E09E
:102430000E94AA0680E090E0A0E0B0E48B879C8731
:10244000AD87BE876B857C858D859E8520E030E0DD
:102450004AE755E40E941F02DC01CB018F83988775
:10246000A987BA876F81788589859A8520E030E0D1
:1024700040E85FE30E94790388232CF481E090E038
:102480009E838D833FC06F81788589859A8520E002
:102490003FEF4FE757E40E94190318164CF56B8580
:1024A0007C858D859E8520E030E040E251E40E94ED
:1024B0001F02DC01CB01BC01CD010E944900DC01FF
:1024C000CB019E838D830FC080E991E09C838B8339
:1024D0008B819C810197F1F79C838B838D819E81F9
:1024E00001979E838D838D819E81009769F714C02B
:1024F0006F81788589859A850E944900DC01CB012E
:102500009E838D838D819E819A83898389819A811F
:102510000197F1F79A83898381E063E040E00E94AC
:10252000AA066D960FB6F894DEBF0FBECDBFCF9151
:10253000DF910895DF93CF9300D000D0CDB7DEB701
:102540009C838B831A82198219C029813A818B81DD
:102550009C81FC01E20FF31F80818823A1F0298177
:102560003A818B819C81FC01E20FF31F80810E94E4
:10257000671189819A8101969A83898389819A81D9
:102580008031910514F30F900F900F900F90CF9121
:10259000DF910895DF93CF93CDB7DEB7A4970FB641
:1025A000F894DEBF0FBECDBF69A37AA38BA39CA313
:1025B00089A19AA19E012F5F3F4FB9014AE050E0E7
:1025C0000E945F19CE0101960E949A12A4960FB63E
:1025D000F894DEBF0FBECDBFCF91DF910895DF939A
:1025E000CF9300D0CDB7DEB780E80E9434101A82B6
:1025F00006C080E20E9467118A818F5F8A838A8188
:102600008031B8F380EC0E943410198206C080E259
:102610000E94671189818F5F898389818031B8F336
:102620000F900F90CF91DF910895DF93CF93CDB7A7
:10263000DEB783E060E040E00E94A30583E067E04E
:1026400040E00E94A30581E064E040E00E94A30511
:1026500081E065E040E00E94A30580E060E040E0AA
:102660000E94A305CF91DF910895DF93CF9300D00F
:10267000CDB7DEB789836A8389816A810E941B088E
:102680000F900F90CF91DF910895DF93CF9300D0FB
:102690000F92CDB7DEB789838981282F30E03B8345
:1026A0002A838A819B818130910579F02A813B813F
:1026B0002230310581F08A819B81009789F482E084
:1026C00062E041E00E94A3050BC082E067E041E0C8
:1026D0000E94A30505C083E063E041E00E94A305DA
:1026E0000F900F900F90CF91DF910895DF93CF93CC
:1026F00000D00F92CDB7DEB789838981282F30E0D3
:102700003B832A838A819B818130910579F02A81DC
:102710003B812230310581F08A819B81009789F4C9
:1027200082E062E041E00E94AA060BC082E067E01E
:1027300041E00E94AA0605C083E063E041E00E94F8
:10274000AA060F900F900F90CF91DF910895DF931D
:10275000CF9300D00F92CDB7DEB789838981282F20
:1027600030E03B832A838A819B818130910579F017
:102770002A813B812230310581F08A819B8100973B
:1027800089F482E062E040E00E94AA060BC082E089
:1027900067E040E00E94AA0605C083E063E040E0F5
:1027A0000E94AA060F900F900F90CF91DF9108958D
:1027B000DF93CF9300D00F92CDB7DEB789838981A5
:1027C000282F30E03B832A838A819B8181309105C9
:1027D00091F02A813B8122303105B1F08A819B81C1
:1027E0000097D1F4A5E3B0E0E5E3F0E0908184E068
:1027F00089278C9311C0A5E3B0E0E5E3F0E0908178
:1028000080E889278C9308C0A2E3B0E0E2E3F0E01F
:10281000908188E089278C930F900F900F90CF9133
:10282000DF910895DF93CF93CDB7DEB70E941513E4
:102830000E94270E0E94860983E060E00E94351303
:10284000813009F050C083E067E00E943513813089
:1028500009F049C081E064E00E943513813009F03D
:1028600042C081E065E00E9435138130E1F580E0EF
:1028700060E00E9435138130B1F588E690E00E9457
:10288000050D0E94EF1228E630E087E5B9010E94AD
:10289000DC0B80E80E94341088E690E00E949A12D7
:1028A00083E060E00E943513813009F01CC183E0B1
:1028B00067E00E943513813009F015C181E064E0C2
:1028C0000E943513813009F00EC181E065E00E945D
:1028D0003513813009F007C180E060E00E943513B4
:1028E0008130F1F200C183E060E00E943513813055
:1028F00009F050C083E067E00E943513813009F091
:1029000049C081E064E00E943513882309F042C089
:1029100081E065E00E9435138823E1F580E060E006
:102920000E9435138130B1F588E690E00E94050DD4
:102930000E94EF1228E630E082E2B9010E94DC0B2F
:1029400080E80E94341088E690E00E949A1283E0AA
:1029500060E00E943513813009F0C5C083E067E074
:102960000E943513813009F0BEC081E064E00E940E
:102970003513882309F0B7C081E065E00E94351364
:10298000882309F0B0C080E060E00E9435138130F8
:10299000F1F2A9C083E060E00E943513882309F0BA
:1029A00050C083E067E00E943513813009F049C0D0
:1029B00081E064E00E943513813009F042C081E07B
:1029C00065E00E9435138823E1F580E060E00E9415
:1029D00035138823B1F588E690E00E94050D0E942A
:1029E000EF1228E630E080E0B9010E94DC0B80E8BD
:1029F0000E94341088E690E00E949A1283E060E022
:102A00000E943513882309F06EC083E067E00E94BE
:102A10003513813009F067C081E064E00E9435130E
:102A2000813009F060C081E065E00E9435138823A1
:102A300009F059C080E060E00E9435138823F1F26C
:102A400052C083E060E00E943513882309F04BC038
:102A500083E067E00E943513882309F044C081E0D9
:102A600064E00E943513882309F03DC081E065E0F1
:102A70000E9435138823B9F580E060E00E94351389
:102A8000813089F588E690E00E94050D0E94EF12E2
:102A900028E630E089E6B9010E94DC0B80E80E945C
:102AA000341088E690E00E949A1283E060E00E9471
:102AB00035138823C1F483E067E00E94351388232F
:102AC00091F481E064E00E943513882361F481E091
:102AD00065E00E943513882331F480E060E00E94B5
:102AE0003513813011F383E060E00E9435138823B1
:102AF00009F050C083E067E00E943513813009F08F
:102B000049C081E064E00E943513882309F042C087
:102B100081E065E00E9435138823E1F580E060E004
:102B20000E9435138823B1F588E690E00E94050DD8
:102B30000E94EF1228E630E080E1B9010E94DC0B30
:102B400080E80E94341088E690E00E949A1283E0A8
:102B500060E00E943513882309F01CC183E067E020
:102B60000E943513813009F015C181E064E00E94B4
:102B70003513882309F00EC181E065E00E9435130A
:102B8000882309F007C180E060E00E9435138823A4
:102B9000F1F200C183E060E00E943513882309F060
:102BA00050C083E067E00E943513813009F049C0CE
:102BB00081E064E00E943513882309F042C081E07F
:102BC00065E00E9435138823E1F580E060E00E9413
:102BD00035138130B1F588E690E00E94050D0E9422
:102BE000EF1228E630E080EFB9010E94DC0B80E8AC
:102BF0000E94341088E690E00E949A1283E060E020
:102C00000E943513882309F0C5C083E067E00E9465
:102C10003513813009F0BEC081E064E00E943513B5
:102C2000882309F0B7C081E065E00E94351388234E
:102C300009F0B0C080E060E00E9435138130F1F20D
:102C4000A9C083E060E00E943513813009F050C0D4
:102C500083E067E00E943513882309F049C081E0D2
:102C600064E00E943513882309F042C081E065E0EA
:102C70000E9435138823E1F580E060E00E9435135F
:102C80008823B1F588E690E00E94050D0E94EF12BE
:102C900028E630E088E3B9010E94DC0B80E80E945E
:102CA000341088E690E00E949A1283E060E00E946F
:102CB0003513813009F06EC083E067E00E94351360
:102CC000882309F067C081E064E00E9435138823FF
:102CD00009F060C081E065E00E943513882309F0A7
:102CE00059C080E060E00E9435138823F1F252C0A1
:102CF00083E060E00E943513813009F04BC083E02F
:102D000067E00E943513813009F044C081E064E03F
:102D10000E943513813009F03DC081E065E00E94DA
:102D200035138823B9F580E060E00E9435138130C7
:102D300089F588E690E00E94050D0E94EF1228E6D2
:102D400030E081EEB9010E94DC0B80E80E94341073
:102D500088E690E00E949A1283E060E00E943513BA
:102D60008130C1F483E067E00E943513813091F433
:102D700081E064E00E943513813061F481E065E018
:102D80000E943513882331F480E060E00E943513FF
:102D9000813011F383E060E00E943513882309F04D
:102DA00050C083E067E00E943513882309F049C0D2
:102DB00081E064E00E943513813009F042C081E077
:102DC00065E00E9435138130E1F580E060E00E940B
:102DD00035138130B1F588E690E00E94050D0E9420
:102DE000EF1228E630E080E4B9010E94DC0B80E8B5
:102DF0000E94341088E690E00E949A1283E060E01E
:102E00000E943513882309F01CC183E067E00E940B
:102E10003513882309F015C181E064E00E94351361
:102E2000813009F00EC181E065E00E9435138130E8
:102E300009F007C180E060E00E9435138130F1F2B3
:102E400000C183E060E00E943513813009F050C07A
:102E500083E067E00E943513882309F049C081E0D0
:102E600064E00E943513882309F042C081E065E0E8
:102E70000E9435138823E1F580E060E00E9435135D
:102E80008130B1F588E690E00E94050D0E94EF12B6
:102E900028E630E083E4B9010E94DC0B80E80E9460
:102EA000341088E690E00E949A1283E060E00E946D
:102EB0003513813009F0C5C083E067E00E94351307
:102EC000882309F0BEC081E064E00E9435138823A6
:102ED00009F0B7C081E065E00E943513882309F04E
:102EE000B0C080E060E00E9435138130F1F2A9C0EB
:102EF00083E060E00E943513813009F050C083E028
:102F000067E00E943513813009F049C081E064E038
:102F10000E943513882309F042C081E065E00E94D9
:102F200035138823E1F580E060E00E9435138823A3
:102F3000B1F588E690E00E94050D0E94EF1228E6A8
:102F400030E08FE6B9010E94DC0B80E80E9434106B
:102F500088E690E00E949A1283E060E00E943513B8
:102F6000813009F06EC083E067E00E943513813044
:102F700009F067C081E064E00E943513882309F0FE
:102F800060C081E065E00E943513882309F059C0D4
:102F900080E060E00E9435138823F1F252C083E0A4
:102FA00060E00E943513882309F04BC083E067E09E
:102FB0000E943513813009F044C081E064E00E9432
:102FC0003513813009F03DC081E065E00E94351382
:102FD0008823B9F580E060E00E943513813089F5DF
:102FE00088E690E00E94050D0E94EF1228E630E08E
:102FF00082E7B9010E94DC0B80E80E94341088E669
:1030000090E00E949A1283E060E00E9435138823CA
:10301000C1F483E067E00E943513813091F481E0D0
:1030200064E00E943513813061F481E065E00E9424
:103030003513882331F480E060E00E94351381303D
:1030400011F383E060E00E943513882309F050C03B
:1030500083E067E00E943513813009F049C081E0C8
:1030600064E00E943513813009F042C081E065E0E0
:103070000E9435138130E1F580E060E00E94351355
:103080008823B1F588E690E00E94050D0E94EF12BA
:1030900028E630E08CE6B9010E94DC0B80E80E9453
:1030A000341088E690E00E949A1283E060E00E946B
:1030B0003513882309F0C0CB83E067E00E94351305
:1030C000813009F0B9CB81E064E00E943513813092
:1030D00009F0B2CB81E065E00E943513813009F040
:1030E000ABCB80E060E00E9435138823F1F2A4CBE3
:1030F00083E060E00E943513882309F050C083E02C
:1031000067E00E943513882309F049C081E064E03C
:103110000E943513882309F042C081E065E00E94D7
:1031200035138823E1F580E060E00E9435138823A1
:10313000B1F588E690E00E94050D0E94EF1228E6A6
:1031400030E085E7B9010E94DC0B80E80E94341072
:1031500088E690E00E949A1283E060E00E943513B6
:10316000882309F069CB83E067E00E943513882348
:1031700009F062CB81E064E00E943513882309F0F6
:103180005BCB81E065E00E943513882309F054CBC6
:1031900080E060E00E9435138823F1F24DCB83E09C
:1031A00060E00E943513882309F046CB83E067E096
:1031B0000E943513813009F03FCB81E064E00E942A
:1031C0003513813009F038CB81E065E00E9435137A
:1031D000813009F031CB80E060E00E94351381300E
:1031E00009F02ACB88E690E00E94050D0E94EF12BC
:1031F00028E630E080E6B9010E94DC0B80E80E94FE
:10320000341088E690E00E949A1283E060E00E9409
:103210003513882309F010CB83E067E00E94351353
:10322000813009F009CB81E064E00E9435138130E0
:1032300009F002CB81E065E00E943513813009F08E
:10324000FBCA80E060E00E9435138130F1F2F4CADD
:103250002F923F924F925F926F927F928F929F92A6
:10326000AF92BF92CF92DF92EF92FF920F931F9394
:10327000CF93DF93CDB7DEB7CA1BDB0B0FB6F89445
:10328000DEBF0FBECDBF09942A88398848885F8485
:103290006E847D848C849B84AA84B984C884DF80F6
:1032A000EE80FD800C811B81AA81B981CE0FD11DDA
:1032B0000FB6F894DEBF0FBECDBFED010895FB0140
:1032C0009F01E8944230C4F04532B4F44A3029F406
:1032D00097FB1EF4909581959F4F642F77270E944E
:1032E0009019805D8A330CF0895D8193CB01009742
:1032F000A1F716F45DE251931082C9010C94801974
:10330000DC01FC01672F71917723E1F7329704C04C
:103310007C916D9370836291AE17BF07C8F30895D7
:10332000AA1BBB1B51E107C0AA1FBB1FA617B707EB
:1033300010F0A61BB70B881F991F5A95A9F7809507
:0C3340009095BC01CD010895F894FFCFDA
:08334C00000000000000000079
:00000001FF
